:020000040800F2
:1000000000500020AD040008150300081703000885
:10001000190300081B0300081D030008000000006E
:100020000000000000000000000000001F030008A6
:100030002103000800000000230300082503000836
:10004000F5040008F5040008F5040008F5040008AC
:10005000F5040008F5040008F5040008F50400089C
:10006000F5040008F5040008F5040008F50400088C
:10007000F5040008F5040008F5040008F50400087C
:10008000F5040008F5040008F5040008F50400086C
:10009000F5040008F5040008F5040008F50400085C
:1000A000F5040008F5040008F5040008F50400084C
:1000B000F5040008F5040008F5040008F50400083C
:1000C000F5040008F5040008F5040008F50400082C
:1000D000F50400082D0300083D030008F50400089E
:1000E000F5040008F5040008F5040008000000000D
:1000F0000000000000000000000000000000000000
:0C01000000000000000000005FF808F1A3
:10010C000348044B834202D0034B03B1184770479A
:10011C001000002010000020000000000548064BD5
:10012C001B1AD90F01EBA301491002D0034B03B1E9
:10013C00184770471000002010000020000000003D
:10014C0010B5064C237843B9FFF7DAFF044B13B113
:10015C000448AFF300800123237010BD1000002071
:10016C00000000000019000808B5054B1BB105493B
:10017C000548AFF30080BDE80840FFF7CFBF00BFD4
:10018C0000000000140000200019000882B00A4B87
:10019C009A6942F020029A619A6902F02002009258
:1001AC00009A9A6942F004029A619B6903F0040375
:1001BC000193019B02B07047001002400023042BF6
:1001CC0004DC50F823201AB90133F8E701207047FA
:1001DC000020704772B6FEE700B591B028220021CE
:1001EC0006A801F0A7FA002301930293039304934A
:1001FC000593012206924FF4803307930A92022250
:10020C000D920E934FF4E0130F9306A800F0D8FB59
:10021C0080B90F23019302210291002303934FF421
:10022C0080620492059301A800F0FCFD20B911B086
:10023C005DF804FBFFF7CEFFFFF7CCFF00B585B0F0
:10024C0000F07AF9FFF7C8FFFFF7A0FF00F07AF88B
:10025C0000F092F800238DF80F3002938DF80C30DB
:10026C0000938DF8043003E002A8FFF7A7FF88B1D4
:10027C00FF2301220DF10F01104801F028F89DF821
:10028C000F30702BF0D1FF23052202A90B4801F08F
:10029C001EF8E9E7FF23052202A9094800F0B8FF80
:1002AC00C82000F06DF90023042BE1DC03F11002EF
:1002BC006A44002102F8081C0133F5E774000020A1
:1002CC002C00002082B00E4B9A6942F001029A6118
:1002DC009A6902F001020092009ADA6942F08052A7
:1002EC00DA61DB6903F080530193019B054A536883
:1002FC0023F0E06343F00073536002B0704700BF1B
:10030C000010024000000140FEE7FEE7FEE7FEE7BA
:10031C00FEE770477047704708B500F01FF908BD3D
:10032C0008B5024801F0C4F808BD00BF74000020F5
:10033C0008B5024801F0BCF808BD00BF2C00002035
:10034C007047000008B50A480A4B03604FF4E133CC
:10035C00436000238360C36003610C2242618361AC
:10036C00C36100F025FF00B908BDFFF733FFFBE7C1
:10037C00740000200038014008B50A480A4B03609D
:10038C004FF4E133436000238360C36003610C22AC
:10039C0042618361C36100F00BFF00B908BDFFF738
:1003AC0019FFFBE72C0000200044004030B589B059
:1003BC00002304930593069307930368344A9342EE
:1003CC0004D0344A934233D009B030BD324B9A69D1
:1003DC0042F480429A619A6902F480420092009A37
:1003EC009A6942F004029A619B6903F00403019339
:1003FC00019B4FF40073049302230593032307938B
:10040C00264D04A9284600F0B7F94FF480630493F5
:10041C0000240594069404A9284600F0ADF9224660
:10042C002146252000F006F9252000F013F9CBE732
:10043C00194BDA6942F40032DA61DA6902F40032FB
:10044C000292029A9A6942F004029A619B6903F043
:10045C0004030393039B04230493022305930323B4
:10046C0007930E4D04A9284600F086F9082304933F
:10047C0000240594069404A9284600F07DF9224630
:10048C002146262000F0D6F8262000F0E3F89BE762
:10049C0000380140004400400010024000080140B8
:1004AC00FFF74EFF0B480C490C4A002302E0D458CE
:1004BC00C4500433C4188C42F9D3094A094C0023A4
:1004CC0001E013600432A242FBD301F083F9FFF781
:1004DC00B5FE7047000000201000002050190008E5
:1004EC001000002058020020FEE7000010B5044662
:1004FC000E4B1A784FF47A73B3FBF2F30C4A106874
:10050C00B0FBF3F000F0B4F868B90F2C01D901205E
:10051C000AE0002221464FF0FF3000F08BF8054B2B
:10052C001C60002000E0012010BD00BF0400002072
:10053C00000000200800002008B5074A136843F0AB
:10054C0010031360032000F063F80F20FFF7CEFFB9
:10055C00FFF7B8FE002008BD00200240034A1168D6
:10056C00034B1B780B441360704700BFBC0000208A
:10057C0004000020014B1868704700BFBC0000202D
:10058C0038B50446FFF7F6FF0546B4F1FF3F02D03D
:10059C00044B1B781C44FFF7EDFF401BA042FAD321
:1005AC0038BD00BF04000020002808DB0901C9B2D7
:1005BC0000F1604000F5614080F80013704700F0D6
:1005CC000F000901C9B2014B1954704714ED00E03A
:1005DC0000B500F00700C0F1070CBCF1040F28BFF8
:1005EC004FF0040C031D062B0FD9C31E4FF0FF3E1A
:1005FC000EFA0CF021EA000199400EFA03FE22EAF1
:10060C000E0241EA02005DF804FB0023EEE7000055
:10061C00074AD36823F4E0631B041B0C000200F4AC
:10062C00E060034343F0BF6343F40033D36070478F
:10063C0000ED00E010B50446054BD868C0F302206D
:10064C00FFF7C6FF01462046FFF7AEFF10BD00BF07
:10065C0000ED00E0002807DB00F01F024009012339
:10066C009340024A42F82030704700BF00E100E09E
:10067C000138B0F1807F0BD24FF0E0235861054A6E
:10068C00F02182F823100020986107221A6170472C
:10069C000120704700ED00E0034690F82120D2B213
:1006AC00022A06D004228263002280F82020012036
:1006BC00704701680A6822F00E020A6001680A6835
:1006CC0022F001020A60026CC06B012101FA02F2F5
:1006DC00426083F82110002083F82000704700004E
:1006EC0008B590F82130DBB2022B03D004238363CE
:1006FC00012008BD0268136823F00E031360026822
:10070C00136823F0010313600368194A934214D051
:10071C00143293421FD0143293421ED0143293429F
:10072C001ED0143293421ED01432934202D04FF09A
:10073C00807203E04FF4801200E001220D4B5A60EE
:10074C00012380F82130002380F82030436B6BB1FB
:10075C0098470020CDE71022F0E74FF48072EDE7C8
:10076C004FF48052EAE74FF48032E7E70020C0E70D
:10077C00080002400000024070B582B00024A4467C
:10078C00A1E07E4DAB4214D00CD8A5F58015AB4240
:10079C000FD005F57025AB420BD0A5F58015AB42FB
:1007AC0010D106E0764DAB4203D005F58035AB4257
:1007BC0008D18B68002B50D0012B49D04261082402
:1007CC0000E0CC68BEF1FF0F49D806464FEA8C0218
:1007DC0033680F25954023EA050304FA02F213430C
:1007EC0033604B6813F0805F6BD0664B9A6942F0B4
:1007FC0001029A619B6903F001030193019B4FEA8B
:10080C009C02951C604B53F825600CF00305AD0061
:10081C000F23AB4026EA03065C4B984226D003F527
:10082C008063984200F08C8003F58063984200F05E
:10083C00898003F58063984216D0042317E0CC68B6
:10084C000434BFE7CC680834BCE7CC680C34B9E797
:10085C0002610824B6E70024B4E70424B2E7061DBD
:10086C00ACF108029200B3E7032300E00023AB4095
:10087C0033430232444D45F822304B6813F4801F49
:10088C0062D0434A936843EA0E0393604B6813F4B7
:10089C00001F5FD03E4AD36843EA0E03D3604B6817
:1008AC0013F4003F5CD03A4A536843EA0E0353609A
:1008BC004B6813F4803F59D0354A136843EA0E0352
:1008CC0013600CF1010C0B6833FA0CF254D00122BA
:1008DC0002FA0CF203EA020E32EA0303F1D14B687E
:1008EC00122B3FF64EAF122B3FF66CAF01A555F80D
:1008FC0023F000BFBF070008CF070008510800080D
:10090C0063080008D1070008D1070008D1070008C8
:10091C00D1070008D1070008D1070008D10700084B
:10092C00D1070008D1070008D1070008D10700083B
:10093C00D1070008D10700084B0800085708000829
:10094C00012394E7022392E7114A936823EA0E03EA
:10095C0093609BE70E4AD36823EA0E03D3609EE7AD
:10096C000B4A536823EA0E035360A1E7084A136845
:10097C0023EA0E031360A4E702B070BD000022103E
:10098C00000031100010024000000140000801403E
:10099C000004014082B0084B1B68084AA2FB0323E9
:1009AC005B0A00FB03F3019300BF019B5A1E0192EB
:1009BC00002BF9D102B0704700000020D34D62101B
:1009CC00002800F0F18170B582B00446036813F082
:1009DC00010F2CD0994B5B6803F00C03042B1DD03A
:1009EC00964B5B6803F00C03082B12D06368B3F5CD
:1009FC00803F41D0002B55D103F1804303F50433E4
:100A0C001A6822F480321A601A6822F480221A6062
:100A1C0037E08A4B5B6813F4803FE7D0874B1B6849
:100A2C0013F4003F03D06368002B00F0BF812368F0
:100A3C0013F0020F75D0814B5B6813F00C0F5FD075
:100A4C007E4B5B6803F00C03082B54D02369002BFE
:100A5C0000F08A807A4B01221A60FFF78BFD054665
:100A6C00764B1B6813F0020F75D1FFF783FD401B0B
:100A7C000228F5D903209EE1704A136843F48033B1
:100A8C001360636843B3FFF775FD05466B4B1B683A
:100A9C0013F4003FCBD1FFF76DFD401B6428F5D953
:100AAC00032088E1B3F5A02F09D0644B1A6822F417
:100ABC0080321A601A6822F480221A60E1E703F18E
:100ACC008043A3F53C331A6842F480221A601A68FA
:100ADC0042F480321A60D4E7FFF74CFD0546574BC1
:100AEC001B6813F4003FA2D0FFF744FD401B6428A1
:100AFC00F5D903205FE1514B5B6813F4803FA5D11E
:100B0C004E4B1B6813F0020F03D02369012B40F0EE
:100B1C004F814A4A136823F0F803616943EAC10321
:100B2C001360236813F0080F33D0A369002B5CD03B
:100B3C00434B0122C3F88024FFF71CFD05463F4BB5
:100B4C005B6A13F0020F21D1FFF714FD401B022842
:100B5C00F5D903202FE1394A136823F0F8036169B2
:100B6C0043EAC1031360DCE7354B00221A60FFF740
:100B7C0001FD0546314B1B6813F0020FD1D0FFF776
:100B8C00F9FC401B0228F5D9032014E10120FFF7E2
:100B9C0001FF236813F0040F00F09680274BDB69EC
:100BAC0013F0805F34D1254BDA6942F08052DA6160
:100BBC00DB6903F080530193019B0125214B1B68DA
:100BCC0013F4807F26D0E368012B3DD0002B53D14A
:100BDC0003F1804303F504331A6A22F001021A620E
:100BEC001A6A22F004021A6233E0154B0022C3F891
:100BFC008024FFF7BFFC0546104B5B6A13F0020F15
:100C0C00C7D0FFF7B7FC401B0228F5D90320D2E070
:100C1C000025D3E70B4A136843F480731360FFF786
:100C2C00A9FC0646074B1B6813F4807FCBD1FFF75A
:100C3C00A1FC801B6428F5D90320BCE00010024005
:100C4C0000004242007000405F4A136A43F0010307
:100C5C001362E36833B3FFF78DFC06465A4B1B6AED
:100C6C0013F0020F2FD1FFF785FC801B41F2883364
:100C7C009842F3D903209EE0052B09D0524B1A6AF7
:100C8C0022F001021A621A6A22F004021A62E0E7E8
:100C9C004D4B1A6A42F004021A621A6A42F00102BF
:100CAC001A62D6E7FFF766FC0646474B1B6A13F041
:100CBC00020F08D0FFF75EFC801B41F2883398428C
:100CCC00F3D9032077E0E5B9E369002B72D03E4AF3
:100CDC00526802F00C02082A56D0022B17D03B4B5C
:100CEC0000221A66FFF746FC0446374B1B6813F0CC
:100CFC00007F47D0FFF73EFC001B0228F5D90320EC
:100D0C0059E0314AD36923F08053D361DCE72F4B90
:100D1C0000221A66FFF72EFC05462B4B1B6813F0BE
:100D2C00007F06D0FFF726FC401B0228F5D90320D4
:100D3C0041E0236AB3F5803F1AD023494B6823F472
:100D4C007413226A606A024313434B601F4B0122E7
:100D5C001A66FFF70FFC04461B4B1B6813F0007F51
:100D6C000ED1FFF707FC001B0228F5D9032022E067
:100D7C00154A536823F40033A1680B435360DCE736
:100D8C00002018E0002016E0012B16D00E4B5B68FB
:100D9C0003F48031226A914211D103F47013626A18
:100DAC0093420ED1002006E001207047012002E0A2
:100DBC00012000E0002002B070BD0120FBE7012003
:100DCC00F9E70120F7E700BF0010024000004242A3
:100DDC000F4B5B6803F00C02082A01D00D487047DA
:100DEC00C3F383420C49885C13F4803F0BD0084B4F
:100DFC005B68C3F34043094AD35C064A02FB00F02C
:100E0C00B0FBF3F07047064B03FB00F0704700BFDC
:100E1C000010024000127A00341900083019000842
:100E2C0000093D00002800F0A08070B50D46044676
:100E3C00524B1B6803F007038B420BD24F4A1368CB
:100E4C0023F007030B431360136803F007038B4273
:100E5C0040F08D80236813F0020F17D013F0040FAD
:100E6C0004D0474A536843F4E0635360236813F09B
:100E7C00080F04D0424A536843F460535360404A0D
:100E8C00536823F0F003A1680B435360236813F0FD
:100E9C00010F31D06368012B20D0022B25D0384AAA
:100EAC00126812F0020F64D035494A6822F003022E
:100EBC0013434B60FFF75EFB0646314B5B6803F058
:100ECC000C036268B3EB820F16D0FFF753FB801B49
:100EDC0041F288339842F0D9032045E0284A126841
:100EEC0012F4003FE0D101203EE0254A126812F0D6
:100EFC00007FD9D1012037E0204B1B6803F007039A
:100F0C00AB420AD91D4A136823F007032B43136025
:100F1C00136803F00703AB422DD1236813F0040FC1
:100F2C0006D0174A536823F4E063E1680B4353601F
:100F3C00236813F0080F07D0114A536823F4605349
:100F4C00216943EAC1035360FFF742FF0C4B5B6816
:100F5C00C3F303130B4AD35CD8400B4B18600B4BF9
:100F6C001868FFF7C3FA002070BD012070470120FC
:100F7C00FAE70120F8E70120F6E700BF0020024065
:100F8C00001002402019000800000020080000207A
:100F9C00014B1868704700BF0000002008B5FFF730
:100FAC00F7FF044B5B68C3F30223034AD35CD840BE
:100FBC0008BD00BF001002401819000808B5FFF763
:100FCC00E7FF044B5B68C3F3C223034AD35CD840EE
:100FDC0008BD00BF0010024018190008026802F199
:100FEC000C0353E8003F23F490730C3242E80031B9
:100FFC000029F3D1026802F1140353E8003F23F0F7
:10100C000103143242E800310029F3D1036B012BA8
:10101C0005D0202380F84230002303637047026818
:10102C0002F10C0353E8003F23F010030C3242E8AA
:10103C0000310029F3D1ECE790F84130DBB2212BE1
:10104C0001D0022070478368B3F5805F17D0036A24
:10105C005A1C02621A7803685A60C38C9BB2013B1B
:10106C009BB2C3844BB90268D36823F08003D3606E
:10107C000268D36843F04003D360002070470369D3
:10108C00002BE4D1036A1B880268C3F30803536086
:10109C00036A02330362E0E710B504460268136981
:1010AC0023F44053C1680B431361836802691343F3
:1010BC0042691A430168CB6823F4B05323F00C0344
:1010CC001343CB600268536923F4407381690B436B
:1010DC0053610268134B9A4220D0FFF75FFF024620
:1010EC0002EB820202EB820263689B00B2FBF3F21A
:1010FC000D48A0FB02314909642303FB11231B019A
:10110C003233A0FB03035B0903F0F00202EB011284
:10111C0003F00F03216813448B6010BDFFF74EFFE3
:10112C000246DDE7003801401F85EB512DE9F843FD
:10113C0005460F4616469946DDF820802B681C683C
:10114C0037EA04040CBF01240024B4422DD1B8F1B9
:10115C00FF3FF3D0B8F1000F05D0FFF70BFAA0EB6F
:10116C0009004045EAD92A6802F10C0353E8003F14
:10117C0023F4D0730C3242E800310029F3D12A68F1
:10118C0002F1140353E8003F23F00103143242E848
:10119C0000310029F3D1202385F8413085F8423005
:1011AC00002385F84030032000E00020BDE8F883E0
:1011BC0060B310B5044690F8413013B3242384F87F
:1011CC0041302268D36823F40053D3602046FFF7E4
:1011DC0063FF2268136923F49043136122685369F7
:1011EC0023F02A0353612268D36843F40053D3607D
:1011FC0000206064202384F8413084F8423060631E
:10120C0010BD80F84030FFF7D1F8D7E701207047C8
:10121C002DE9F04182B01E4690F84130DBB2202B14
:10122C004BD104460D46904600294AD00AB90120FC
:10123C0044E000234364212380F84130FFF79AF9FE
:10124C000746A4F82480A4F82680A368B3F5805F31
:10125C0002D04FF000080FE02369FBB14FF00008FB
:10126C000AE038F8023B2268C3F308035360E28CAF
:10127C0092B2013A92B2E284E38C9BB28BB10096AB
:10128C003B46002280212046FFF750FFD8B9002DA5
:10129C00E7D015F8012B23685A60E8E7A84600252B
:1012AC00EAE700963B46002240212046FFF73EFF2E
:1012BC0058B9202384F8413000E0022002B0BDE888
:1012CC00F0810120FAE70320F8E70320F6E72DE987
:1012DC00F04182B01E4690F84230DBB2202B53D145
:1012EC0004460D469046002952D00AB901204CE024
:1012FC0000234364222280F842200363FFF73AF96B
:10130C000746A4F82C80A4F82E80A368B3F5805F60
:10131C0002D04FF0000817E0236913B14FF000081A
:10132C0012E0A84600250FE023685B68C3F30803AE
:10133C0028F8023B03E023685B682B700135E28DD3
:10134C0092B2013A92B2E285E38D9BB2BBB10096A8
:10135C003B46002220212046FFF7E8FED0B9002DA5
:10136C00E2D0A368B3F5805FE5D013B92369002BF5
:10137C00E1D023685B6803F07F032B70DEE720234A
:10138C0084F84230002000E0022002B0BDE8F08179
:10139C000120FAE70320F8E7704708B50168CA682E
:1013AC0022F04002CA60202280F84120FFF7F4FFAF
:1013BC00002008BD7047704708B5406A0023C385FC
:1013CC00C384FFF7F8FF08BD704790F84230DBB2DA
:1013DC00222B69D18368B3F5805F4FD0826AB3F555
:1013EC00805F04D0002B56D10369002B53D10368C6
:1013FC005B681370836A01338362C38D9BB2013BBC
:10140C009BB2C385002B51D100B583B00268D36861
:10141C0023F02003D3600268D36823F48073D36075
:10142C000268536923F001035361202380F8423092
:10143C0000234363036B012B33D100230363026846
:10144C0002F10C0353E8003F23F010030C3242E886
:10145C0000310029F3D103681A6812F0100F06D07E
:10146C00002201921A6801925B680193019B818DA5
:10147C00FFF7AAFF002003B05DF804FB0269002A05
:10148C00ACD1826A03685B68C3F308031380836A78
:10149C0002338362B1E703685B6803F07F03137068
:1014AC00A8E7FFF787FFE5E70220704700207047A9
:1014BC0010B582B0044602681368D068516913F005
:1014CC000F0F09D113F0200F0CD010F0200F09D002
:1014DC002046FFF77AFF16E011F0010115D110F448
:1014EC00907F12D1216B012979D013F0800F03D09A
:1014FC0010F0800F40F0138113F0400F03D010F068
:10150C00400F40F0108102B010BD13F0010F06D057
:10151C0010F4807F03D0626C42F00102626413F01D
:10152C00040F04D019B1626C42F00202626413F031
:10153C00020F04D019B1626C42F00402626413F021
:10154C00080F07D010F0200F00D119B1626C42F0D7
:10155C0008026264626C002AD5D013F0200F02D00E
:10156C0010F0200F29D123685B6903F04003626CF3
:10157C0012F0080F00D163B32046FFF72FFD23684C
:10158C005B6913F0400F20D0226802F1140353E87A
:10159C00003F23F04003143242E800310029F3D11C
:1015AC00E36B73B1624A5A63E06BFFF799F800285A
:1015BC00A9D0E06B436B9847A5E72046FFF705FFE2
:1015CC00D1E72046FFF7F7FE9DE72046FFF7F3FE35
:1015DC0099E72046FFF7EFFE0023636493E713F0CF
:1015EC00100F82D010F0100F3FF47FAF0023019347
:1015FC001368019353680193019B536913F0400FD7
:10160C0051D0E26B13685B689BB2002B3FF47BAF4D
:10161C00A18D99427FF677AFE3859369202B37D064
:10162C00226802F10C0353E8003F23F480730C3260
:10163C0042E800310029F3D1226802F1140353E887
:10164C00003F23F00103143242E800310029F3D1AA
:10165C00226802F1140353E8003F23F040031432D4
:10166C0042E800310029F3D1202384F842300023D2
:10167C002363226802F10C0353E8003F23F01003AC
:10168C000C3242E800310029F3D1E06BFFF704F88B
:10169C0002236363A18DE38D9BB2C91A89B22046E4
:1016AC00FFF792FE2FE7A18DE38D9BB2C91A89B289
:1016BC00E38D9BB2002B3FF426AF00293FF423AF00
:1016CC00226802F10C0353E8003F23F490730C32B0
:1016DC0042E800300028F3D1226802F1140353E8E9
:1016EC00003F23F00103143242E800300028F3D10C
:1016FC00202384F8423000232363226802F10C0378
:10170C0053E8003F23F010030C3242E8003000286D
:10171C00F3D1022363632046FFF756FEF3E620461F
:10172C00FFF78AFCEFE62046FFF737FEEBE600BF3B
:10173C00C513000870B5860747D0541E002A3ED04A
:10174C000346CAB201E0013C39D303F8012B9D07D3
:10175C00F9D1032C2CD9CDB205EB05250F2C1A464B
:10176C0005EB054534D9A4F1100C2CF00F0603F150
:10177C00100EB6444FEA1C1CC2E90055C2E90255D2
:10178C0010327245F8D10CF1010214F00C0F03EB7E
:10179C00021204F00F0C13D0ACF1040323F003037A
:1017AC000433134442F8045B9342FBD10CF0030462
:1017BC002CB1C9B21C4403F8011BA342FBD170BD70
:1017CC0064461346002CF4D1F9E703461446C0E7EF
:1017DC00A446E1E770B50F4B0F4DAB42A3EB0506EA
:1017EC0007D00024B61055F8043B01349847A642A4
:1017FC00F9D800F07FF8094D094B5E1BAB424FEA5C
:10180C00A60606D0002455F8043B01349847A6429E
:10181C00F9D870BD4419000844190008441900088F
:10182C004C190008704700BF704700BF024B13B142
:10183C00024800F005B87047000000005918000875
:10184C00002301461A46184600F014B838B5074D67
:10185C00074C2C1BA41005D0013C55F8043D9847AF
:10186C00002CF9D1BDE8384000F04AB850190008F6
:10187C004C1900082DE9F8431B4D0646286898467C
:10188C000F469146FFF7CEFF184B1C681CB3286817
:10189C0065681F2D22DC4EB96B1C0235636044F861
:1018AC002570FFF7C1FF0020BDE8F883012304EB8E
:1018BC008501C1F88890D4F88821AB401A43022ED8
:1018CC00C4F88821C1F80881E6D1D4F88C211A43D8
:1018DC00C4F88C21E0E7064C1C60D8E7FFF7A4FFA6
:1018EC004FF0FF30E0E700BF0C000020C4000020E8
:1018FC00C8000020F8B500BFF8BC08BC9E46704775
:0C190C00F8B500BFF8BC08BC9E46704750
:1019180000000000010203040000000000000000B5
:101928000102030406070809010200000203040576
:0C193800060708090A0B0C0D0E0F10101A
:081944003918000875010008C4
:04194C004D01000841
:101950000024F4000100000010000000C00000207E
:04000005080004AD3E
:00000001FF
